{"abi":[{"type":"constructor","inputs":[],"stateMutability":"nonpayable"},{"type":"function","name":"authorizedLoggers","inputs":[{"name":"","type":"address","internalType":"address"}],"outputs":[{"name":"","type":"bool","internalType":"bool"}],"stateMutability":"view"},{"type":"function","name":"guardian","inputs":[],"outputs":[{"name":"","type":"address","internalType":"address"}],"stateMutability":"view"},{"type":"function","name":"logHistoricalAction","inputs":[{"name":"_institution","type":"address","internalType":"address"},{"name":"_freezeCount","type":"uint256","internalType":"uint256"},{"name":"_grantCount","type":"uint256","internalType":"uint256"},{"name":"_warningCount","type":"uint256","internalType":"uint256"},{"name":"_actionLog","type":"bytes32","internalType":"bytes32"}],"outputs":[],"stateMutability":"nonpayable"},{"type":"function","name":"setLoggerAuthorization","inputs":[{"name":"_logger","type":"address","internalType":"address"},{"name":"_status","type":"bool","internalType":"bool"}],"outputs":[],"stateMutability":"nonpayable"},{"type":"function","name":"setSurveillanceStatus","inputs":[{"name":"_institution","type":"address","internalType":"address"},{"name":"_status","type":"bool","internalType":"bool"}],"outputs":[],"stateMutability":"nonpayable"},{"type":"function","name":"viewHistory","inputs":[{"name":"_institution","type":"address","internalType":"address"}],"outputs":[{"name":"totalFreezes","type":"uint256","internalType":"uint256"},{"name":"grantsReceived","type":"uint256","internalType":"uint256"},{"name":"warningsIssued","type":"uint256","internalType":"uint256"},{"name":"firstIntervention","type":"uint256","internalType":"uint256"},{"name":"lastAudit","type":"uint256","internalType":"uint256"},{"name":"isMonitored","type":"bool","internalType":"bool"}],"stateMutability":"view"},{"type":"event","name":"HistoryUpdated","inputs":[{"name":"institution","type":"address","indexed":true,"internalType":"address"},{"name":"actionLog","type":"bytes32","indexed":false,"internalType":"bytes32"}],"anonymous":false},{"type":"event","name":"LoggerAuthorizationUpdated","inputs":[{"name":"logger","type":"address","indexed":true,"internalType":"address"},{"name":"status","type":"bool","indexed":false,"internalType":"bool"}],"anonymous":false},{"type":"event","name":"SurveillanceStatusChanged","inputs":[{"name":"institution","type":"address","indexed":true,"internalType":"address"},{"name":"isUnderSurveillance","type":"bool","indexed":false,"internalType":"bool"}],"anonymous":false}],"bytecode":{"object":"0x6080604052348015600e575f5ffd5b505f80546001600160a01b0319163317905561064c8061002d5f395ff3fe608060405234801561000f575f5ffd5b5060043610610060575f3560e01c8063189f158d146100645780632801e43a146100ab57806336649f6a146100dd578063452a9320146100f2578063961bee821461011c578063b593bb021461012f575b5f5ffd5b6100776100723660046104f1565b610142565b6040805196875260208701959095529385019290925260608401526080830152151560a082015260c0015b60405180910390f35b6100cd6100b93660046104f1565b60026020525f908152604090205460ff1681565b60405190151581526020016100a2565b6100f06100eb366004610511565b610245565b005b5f54610104906001600160a01b031681565b6040516001600160a01b0390911681526020016100a2565b6100f061012a36600461054a565b610337565b6100f061013d366004610511565b61043a565b6001600160a01b0381165f908152600160208181526040808420815160c0810183528154815293810154928401929092526002820154908301526003810154606083018190526004820154608084015260059091015460ff16151560a083015282918291829182918291906102155760405162461bcd60e51b815260206004820152602e60248201527f4572726f723a204e6f20686973746f72792065786973747320666f722074686960448201526d399034b739ba34ba3aba34b7b71760911b60648201526084015b60405180910390fd5b8051602082015160408301516060840151608085015160a090950151939c929b5090995097509195509350915050565b5f546001600160a01b031633146102d85760405162461bcd60e51b815260206004820152604b60248201527f4572726f723a204163636573732064656e6965642e204f6e6c7920746865205360448201527f6f7665726569676e20477561726469616e2063616e20616c74657220636f6e6660648201526a34b3bab930ba34b7b7399760a91b608482015260a40161020c565b6001600160a01b0382165f81815260026020908152604091829020805460ff191685151590811790915591519182527f9a930a25698f6b5bbca85e080f7fa61e9f190b339cc1b8e151c0a4fb404b124591015b60405180910390a25050565b5f546001600160a01b031633148061035d5750335f9081526002602052604090205460ff165b6103795760405162461bcd60e51b815260040161020c90610588565b6001600160a01b0385165f90815260016020526040812060038101549091036103a3574260038201555b84815f015f8282546103b591906105f1565b9250508190555083816001015f8282546103cf91906105f1565b9250508190555082816002015f8282546103e991906105f1565b90915550504260048201556040518281526001600160a01b038716907f487362a4d80125bc023d76d80551439778c667aeefd5894dc810de019125e9859060200160405180910390a2505050505050565b5f546001600160a01b03163314806104605750335f9081526002602052604090205460ff165b61047c5760405162461bcd60e51b815260040161020c90610588565b6001600160a01b0382165f81815260016020908152604091829020600501805460ff191685151590811790915591519182527f9e9a8c8773394fc21413a8e12829f2841008f858a896fe748b28c67e7adcaf71910161032b565b80356001600160a01b03811681146104ec575f5ffd5b919050565b5f60208284031215610501575f5ffd5b61050a826104d6565b9392505050565b5f5f60408385031215610522575f5ffd5b61052b836104d6565b91506020830135801515811461053f575f5ffd5b809150509250929050565b5f5f5f5f5f60a0868803121561055e575f5ffd5b610567866104d6565b97602087013597506040870135966060810135965060800135945092505050565b60208082526043908201527f4572726f723a204163636573732064656e6965642e2053656e646572206e6f7460408201527f20617574686f72697a656420746f206c6f6720686973746f726963616c2064616060820152623a309760e91b608082015260a00190565b8082018082111561061057634e487b7160e01b5f52601160045260245ffd5b9291505056fea26469706673582212204e20b4bae2e91c017172682f6ab9bf067c4526325cc77bd387c0c6cd9801cbea64736f6c634300081e0033","linkReferences":{}},"methodIdentifiers":{"authorizedLoggers(address)":"2801e43a","guardian()":"452a9320","logHistoricalAction(address,uint256,uint256,uint256,bytes32)":"961bee82","setLoggerAuthorization(address,bool)":"36649f6a","setSurveillanceStatus(address,bool)":"b593bb02","viewHistory(address)":"189f158d"},"id":13}